:040000000C948D00CF
:100004000C9400000C9400000C9400000C9400006C
:100014000C9400000C9400000C9448030C94000011
:100024000C9400000C9400000C9400000C9400004C
:100034000C945A010C9400000C94A2010C9400003E
:100044000C9400000C9400000C9400000C9400002C
:100054006400C80090012003F8FFFCFFFEFFFFFFCF
:100064001027E80364000A000100001000011000DA
:10007400010001000300A6FFA6FF320001002D25A8
:10008400692E2575DF43002B25692E2575DF430076
:100094002D2D2E2DDF4300256925252E256900539E
:1000A4006D6172742053746F6B657200763A322EF0
:1000B40035204C6F6164696E672E2E2E000080C05F
:1000C40001002D4E414E00494E4600000100020041
:1000D40076000100A50278000400A6027A0001005F
:1000E400D3027E000100D402800007006002940065
:1000F40007006702940007006E0294000D00750269
:10010400A30011008202B00002003403C200010007
:100114003B03C4000000F894EE27ECBBF1E0F5BF0C
:10012400E5BFF8E1F1BDE1BD8DE0A2E0BB27ED93B1
:100134008A95E9F780E098E0A0E6ED930197E9F766
:10014400E0EDF0E085919591009761F0A591B5916E
:1001540005901590BF01F00105900D920197E1F70C
:10016400FB01F0CFEFE5EDBFE8E0EEBFC0E6D2E083
:100174000C945204A881B9810E94770DAA81BB8195
:10018400EC93A881B98111960E94770DAA81BB8155
:100194001196EC93A881B98112960E94770DAA81D9
:1001A400BB811296EC93A881B98113960E94770DB6
:1001B400AA81BB811396EC93A881B98114960E94FD
:1001C400770DAA81BB811496EC93A881B981159609
:1001D4000E94770DAA81BB811596EC93A881B98101
:1001E40016960E94770DAA81BB811696EC93A8817E
:1001F400B98117960E94770DAA81BB811796EC935B
:10020400A881B98118960E94770DAA81BB8118969E
:10021400EC9324960895E881E064E7B98BE18A952C
:10022400F1F7369A349BFECF349AE4B1F5B1CEC0DF
:10023400E0E0EBBBEEEFEABBE0E0E8BBE7BBE5BB2D
:10024400E4BBE3E0E2BBECE7E1BBE0E0E3BFE2BF39
:10025400ECBFEFBDE5E0EEBDEFE0EDBDEFEFECBDD3
:10026400E0E0E7BDE6BDE2E8EBBDE0E3EABDE0E0E7
:10027400E2BDE5BDE4BDE3BDE5BFE4BFE0E1E9BF48
:10028400E0E0EBB9E8EDEAB9E6E8E0BDE0E0E0BDC6
:10029400E3E3E9B9E0E8E8B9E0E0E0BFE6B9EDB9E5
:1002A400E6BFE0E4E7B9E6E8E6B90E94B90B0895D1
:1002B400AA93EA93FA93EFB7EA931A930A930BB1CA
:1002C4001CB1E02FEC71D9F4E0911603EF5FE093D9
:1002D40016030E94750A1083A0911603A03219F424
:1002E400E0E0E0931603A0911803AF5FA093180316
:1002F400A03229F4E0E0E0931803689421F809910E
:1003040019913AC00A93E0911803E030E1F3E091C7
:100314001703EF5FE09317030E94750A0081A09111
:100324001703A03219F4E0E0E0931703F894E09186
:100334001803E150E09318037894E02F099108958D
:10034400AA93EA93FA93EFB7EA93E0912303E03098
:1003540099F0E150E0932303E0912203EF5FE093EF
:1003640022030E947A0AE081ECB9A0912203A8300A
:1003740019F4E0E0E0932203E991EFBFF991E991E8
:10038400A9911895A0912303A830E1F3F894E09182
:100394002303E03011F45D9916C0E0912103EF5F6F
:1003A400E09321030E947A0AA881A083A0912103EB
:1003B400A83019F4E0E0E0932103E0912303EF5F18
:1003C400E093230302C0E881ECB978942196089560
:1003D400F894E0E0E0931803E0931603E093170326
:1003E40078940895E881F0E00E947F0AE091180370
:1003F400A981EA1711F4E0E002C0EADFE1E0229605
:10040400089524971A930A9306EA1FEF0E94830A19
:10041400A081A83211F00C945A020E94830AFA9324
:10042400EA939AD5EA83FB836C837D83AD81AA2307
:1004340022F40E948A0AA1E003C00E948A0AA0E072
:10044400A083EA81FB816C817D810E944E0CFA932A
:10045400EA930E948F0AFF93EF93AA81BB818C8158
:100464009D81E0E0F0E060E271E40E94B30CAF91A2
:10047400BF910E944E0C0E949B0AFF93EF93EE8162
:10048400ACEAB2E00E94A60AAE0FBF1F0E946A0D3A
:10049400FA93EA930E94AF08AF91BF910E949B0A1E
:1004A400BF01DF010E946A0DDF010E94AA0A1EC07B
:1004B4000E94830AFA93EA93E8D48F01112322F469
:1004C4000E948A0AA1E003C00E948A0AA0E0A083D5
:1004D4001A930A930E948F0ABF01D8010E94AA0AA4
:1004E400D801EAE0F0E00E94490D8F01EFE0F7E265
:1004F400E017F10729F0E7EEF3E0E017F10719F44C
:10050400E6EAFFEF01C0F8011981088127960895F2
:100514000E943C08E091EC02E03011F00C94470397
:10052400E0E0EA93EA930E942B080E94B20AE63ABA
:10053400AFEFFA07F1F0E091B302E03029F00E9446
:10054400B70AE2E8F0E004C00E94B70AEBE8F0E082
:10055400FA93EA930E94B20A0E94BC0AE091AE02A6
:10056400F091AF020E94BC0A0E94C10AE4E2F3E0E7
:1005740002C0E0E6F2E0FA93EA930E946C08E8E035
:10058400EA93E0E0EA930E942B080E94C60AA63A86
:10059400EFEFBE0701F1E091B202E03029F00E94D2
:1005A400B70AE2E8F0E004C00E94B70AEBE8F0E022
:1005B400FA93EA93E091A602F091A7020E94BC0A82
:1005C400E091AC02F091AD020E94BC0A0E94C10A03
:1005D400E4E2F3E002C0E7E6F2E0FA93EA930E9471
:1005E4006C080E94CB0A0E94D10AE63AAFEFFA07E0
:1005F400F1F0A091B402A13029F40E94B70AE2E814
:10060400F0E004C00E94B70AEBE8F0E0FA93EA9342
:100614000E94D10A0E94BC0AE091B002F091B1029A
:100624000E94BC0A0E94C10AE4E2F3E002C0EEE6C2
:10063400F2E0FA93EA930E946C08E8E0EA93E1E0BE
:10064400EA930E942B080E94B70AEBE9F0E0FA93C0
:10065400EA93E0E0EA93DFDDA4E6B0E00E94290D2E
:100664000E941A0DEF2FF0E0662777270E94720D83
:10067400E0E0EA93D0DD662777270E94720D0E949E
:10068400C10A0E94B70A0E946C0808950A921A923D
:10069400FA926A937A938A939A93AA93BA93EA936F
:1006A400FA93EFB7EA93A091D702A03031F4A2E213
:1006B400B0E00E94770DE13009F005C0AEE1B0E092
:1006C400E0E00E94830DAEE1B0E00E94770DE030DF
:1006D40049F020FC07C0A2E2B0E00E94770DE130AF
:1006E40009F046C0E0E0E093D802E091A502A091B1
:1006F400D802AE17E8F50E94D60AEA0FFB1FFF9353
:10070400EF93E091D802EA937CDEAF91BF91ED9331
:10071400FC930E94D60AAE0FBF1F0E946A0DE63AF0
:10072400AFEFFA07C1F4A091D802A03021F40E94DF
:10073400DB0AE03009F00EC0E091D702EF5FE093EE
:10074400D702A091D702A53028F0AEE1B0E0E1E0F5
:100754000E94E00A07C0E091D802E03019F4E0E01A
:10076400E093D702E091D802EF5FE093D802BDCFC7
:100774000E94DB0A0E94E80A11F00C940B04DE9834
:10078400DF9AACE1B0E00E94770DE093D302E1E0A0
:10079400E093D4020E94B20AE63AAFEFFA07D1F02E
:1007A400ADE1B0E00E94770DA091A802B091A9023A
:1007B4000E94EB0A24F4E0E0E093D40295980E94AE
:1007C400B20A0E94C60AAE17BF0724F09598E0E06B
:1007D400E093D4020E94EF0AD9F0959B09C0E091FE
:1007E400D3020E94C60A0E94EB0A0CF0959810C02E
:1007F400ABE1B0E00E94770D0E94C60A0E94EB0AAA
:100804003CF4E091D402E03011F4959801C0959A3B
:1008140038C0E130A0E0FA0729F5DF98DE9AE091CC
:10082400D502F091D6023896E093D502F093D60221
:10083400959B0CC0AFE1B0E00E94F40A30F4E0E014
:10084400E093D502E093D60295980BC0A0E2B0E005
:100854000E94F40A30F4E0E0E093D502E093D6027B
:10086400959A0FC0E230A0E0FA0721F4959ADE9A37
:10087400DF9A07C0E330A0E0FA0719F49598DE98F0
:10088400DF9846DEE991EFBFF991E991B991A99119
:100894009991899179916991F99019900990189594
:1008A400C7DC0E94000BEAECF2E0FA93EA93E2E17F
:1008B400F0E0FA93EA930E94BC00E0E0EA93A1DD41
:1008C400E093A602F093A702E1E0EA939ADDE093B5
:1008D400A802F093A9029598AEE1B0E0E0E00E948E
:1008E400830D0E94DB0A0E94E80AB1F40E94EF0A19
:1008F40031F00E94B20AE63AAFEFFA0709F404C0F5
:10090400A091A502A23030F4DF9ADE9AE1E0E093F0
:10091400D70201C0DF9A16C0E130A0E0FA0719F44B
:10092400DF98DE9A0FC0E230A0E0FA0721F4959A2E
:10093400DE9ADF9A07C0E330A0E0FA0719F495982D
:10094400DE98DF98A1E2B0E00E94770DEF5F0E948D
:10095400830DE150E0E1EA930E947B08E5E7F2E0D1
:10096400FA93EA930E946C080E94CB0AE2E8F2E050
:10097400FA93EA930E946C087894C4DCE093DA0258
:10098400F0E0E130A0E0FA0759F50E94EF0A11F413
:10099400E6EA02C0E091A602E093B5020E94B20A20
:1009A400E63AAFEFFA0711F4E6EA02C0E091A802D2
:1009B400E093B6020E94140B0E941D0BE2E0EA933E
:1009C400FAD1E093DC02E0E0E093D902A091D902ED
:1009D400A33028F40E94220B0E942B0BF7CFE9C10D
:1009E400E230A0E0FA0711F00C943705ABE1B0E077
:1009F4000E94770DE093DA02ACE1B0E00E94770D3B
:100A0400E093DB02ADE1B0E00E94770DE093DC02FD
:100A1400AFE1B0E00E94770DE093DD02A0E2B0E028
:100A24000E94770DE093DE020E94DB0AE093DF026E
:100A3400E0E0E093E002A1E2B0E00E94770DE093F1
:100A4400E1020E941D0BE8E0EA93B5D1E093E202D3
:100A5400E0E0E093D902A091D902A93028F40E94E1
:100A6400220B0E942B0BF7CFA4C1E330A0E0FA07BE
:100A740011F00C94AE05E7E0EA93EEE0EA93B2DC01
:100A8400E03009F07ACFE1E0E093D902A091D902F5
:100A9400A73068F40E94310BE652FD4FFF93EF93A9
:100AA40031DCAF91BF91EC930E942B0BEFCF2ADC8A
:100AB400E093E1020E941D0BE7E0EA937CD1AE2FA4
:100AC400E091E102EA1711F00C94AD05E091DB022C
:100AD400ABE1B0E00E94830DE091DC02ACE1B0E058
:100AE4000E94830DE091DD02ADE1B0E00E94830D30
:100AF400E091DE02AFE1B0E00E94830DE091DF02FD
:100B0400A0E2B0E00E94830DE091E002AEE1B0E02B
:100B14000E94E00A0E94DB0A0E94E80A19F4DF9AA4
:100B2400DE9816C0E130A0E0FA0719F4DF98DE9AE7
:100B34000FC0E230A0E0FA0721F4959ADE9ADF9A1A
:100B440007C0E330A0E0FA0719F49598DE98DF981F
:100B5400EAEAEA9317DC2DC1E430A0E0FA07C9F50C
:100B6400E0E0E093D902A091D902A830F0F40E9409
:100B7400350BEA0FFB1FE652FD4FDF010E94310BDC
:100B8400E854FD4FE081EC930E94350B0E94390B31
:100B94000F01A1ECB2E00E94310BAE0FBF1FEC912C
:100BA400D001EC930E942B0BDECF0E941D0BE0E1E1
:100BB400EA9301D1E093EA02E0E0E093D902A09144
:100BC400D902A13128F40E94220B0E942B0BF7CFEB
:100BD400F0C0E530A0E0FA0711F00C945806E1E10A
:100BE400EA93E2E2EA93FEDBE03009F0C6CEE0E00D
:100BF400E093D902A091D902A830D8F40E94350B11
:100C04000E94390BFF93EF930E948401AF91BF912F
:100C1400EC930E94350BEA0FFB1FE452FD4FFF9348
:100C2400EF930E948401AF91BF91EC930E942B0B30
:100C3400E1CF0E948401E093EB020E941D0BE1E1ED
:100C4400EA93B9D0AE2FE091EB02EA1771F5E0E038
:100C5400E093D902A091D902A83010F50E94310B7B
:100C6400BF01E854FD4F0F01A091D902BB27FB013E
:100C74000E94390BE081D001EC93A1ECB2E00E9418
:100C8400310BEA0FFB1F0F010E94350BEA0FFB1F0C
:100C9400E452FD4FE081D001EC930E942B0BDACF9C
:100CA4000E94000BEAEAEA936DDB83C0E630A0E021
:100CB400FA0739F4A1E2B0E0E0E00E94830DEAEA29
:100CC40075C0E730A0E0FA0711F00C94A9060E9461
:100CD400EF0A11F4E6EA02C0E091A602E093B5023D
:100CE4000E94B20AE63AAFEFFA0711F4E6EA02C04C
:100CF400E091A802E093B6020E94D10AE63AAFEF6F
:100D0400FA0711F4E6EA02C0E091AA02E093B702FE
:100D14000E94140BE091B702E093DC02E0E09599A5
:100D2400E1E0E093DD020E941D0BE4E0EA9343D08E
:100D3400E093DE02E0E0E093D902A091D902A5306D
:100D440028F40E94220B0E942B0BF7CF32C0E9300B
:100D5400A0E0FA0771F5EDE3EA930E94C401E3E52C
:100D6400EA930E94C401EDE4EA930E94C401E1E421
:100D7400EA930E94C401E2E5EA930E94C401E4E517
:100D8400EA930E94C401EDE3EA930E94C401E4E4FF
:100D94000E943E0BE6E5EA930E94C401E9E4EA936B
:100DA4000E94C401E3E40E943E0BEDE3EA930E9437
:100DB400C401E3CDFFCF0E94950D00E010E0ED816A
:100DC400E11719F1AE81BF81EE27A10FBE1F3C913F
:100DD40028E0E32FE027E1704E2F413011F4E8E1E1
:100DE4000E27E02FF0E0F595E795EF77F0700E2FE2
:100DF400413009F40068E32FF0E0F595E7953E2FC4
:100E04002150213030F71F5FDACFE02F0E949C0D74
:100E1400289608950A930E94B90BE03011F4E0E09B
:100E240065C1E981FA81309749F0E5E50E94450BF7
:100E34000E944A0B0F5F0830D8F304C0ECECEA932D
:100E44000E94FF0BE1E052C10E94520BE3DFE0304D
:100E540029F4E0E00E949E0D0C94F308EEEB0E944E
:100E6400450B13E922E02F931F931F5F2F4F0E941E
:100E7400FA0BAF91BF91EC930F5F0930A0F3E3E954
:100E8400F2E00E94590B0C94F308E881F981FA937B
:100E9400EA93C0DFE03019F4E1EFF8EDE9C0E4E4EF
:100EA400EA930E94FF0BE6E2F2E00E947F0AE881E7
:100EB400F981FA93EA93C8DFE03019F4E1EFF8ED31
:100EC400D7C00E94B90BF0919402E0E0DF01E091F9
:100ED4009302F0E0EA2BFB2BA5E0B0E00E94310D79
:100EE400C7C00A930E94B90BE03011F4E0E0FEC0E1
:100EF400E981FA81309749F0E5E50E94450B0E94AB
:100F04004A0B0F5F0830D8F304C0ECECEA930E945C
:100F1400FF0BE1E0EBC00E94520BE3DFE03029F469
:100F2400E0E00E949E0D0C94F308EEEB0E94450B4A
:100F34001CE922E02F931F931F5F2F4F0E94FA0B8F
:100F4400AF91BF91EC930F5F0930A0F3ECE9F2E0AD
:100F54000E94590B0C94F3080A930E94640BDBDF84
:100F6400E03019F40E94690BC1C0A091A002B0E066
:100F7400E5E00E94110DE3700E2F0E94640BB1DFB7
:100F8400E03019F40E94690BB1C0E4E4EA930E94D2
:100F9400FF0BE02FA4E5B0E00E94A60AEA0FFB1FB6
:100FA4000E946E0D0E947F0A0E94640BB4DFE03041
:100FB40019F40E94690B9AC00E94B90BE02FACE5AA
:100FC400B0E00E94A60AEA0FFB1F0E946E0DA091DA
:100FD4009C02B0919D02EA23FB230E941F0D0E94F4
:100FE400850CA0E0B0E080E89DE30E94B30C7EC0D5
:100FF400E881E07111F0C49A01C0C498E881E072FC
:1010040011F0C59A01C0C598E881E07411F0C69A40
:1010140001C0C698E881E07811F0C79A01C0C7986A
:1010240085E08A95F1F7C29A8DE08A95F1F7C29826
:101034008DE08A95F1F78FC0E881EA93D9DFE881E2
:10104400E295E883E881EA93D3DF85E88A95F1F7AE
:1010540082C0E881F0E0EC5CFC4FE081A981EA0FFA
:10106400EA93EADFE981E0933803E881E093390306
:1010740022960895E2E00E946E0BECE0EA93DCDF36
:10108400E1E00E946E0BE0E0E0933903E093380363
:101094000895A881AA3031F0E0913A03A091380371
:1010A400AE1768F0E0E0EA93E0913903EF5FE09374
:1010B4003903EA93CEDFA881AA3009F44CC0E09149
:1010C4003803EF5FE0933803C09AE881EA93B4DF12
:1010D400C09841C00A93A981BA81ED91A983BA83CA
:1010E4000E2FE03019F00A93D4DFF5CF0881239650
:1010F4000895BC9ABD9ABE9ABF9ABA9AB89AB99AF8
:10110400C298C098C198E881E0933A03E058E0930C
:101114003603E881E054E0933703E4E1F0E00E9411
:101124007F0A0E94740B0E94740B0E94740BE0E20D
:10113400EA935EDF88EC90E00197F1F7E8E2EA9346
:101144007BDFE4E0EA9378DFE5E8EA9375DFE6E045
:10115400EA9372DF8FDF21960895E991F991309730
:101164001AF4E095F095319608951A930A93AA819A
:10117400BB8112960E946A0D309759F1AA81BB81F6
:1011840014960E946A0D8F01309761F00230E0E0FE
:101194001E07F0F0F80131978F01AA81BB811496E4
:1011A400ED93FC93AA81BB811296ED91FD9131964A
:1011B400FE93EE933197AC81A083AA81BB810E94F8
:1011C4006A0DFF232AF0ED91FD913196FE93EE9383
:1011D40006C0AA81BB81EFEFFFEFED93FC93198169
:1011E40008812596089526970E94940D00E0AC8509
:1011F400BD85E0E0F0E0ED93FC93EA89FB8931964C
:10120400EA8BFB8B3197E4913E2FE03011F40C9480
:10121400220AE02FE03039F4353211F401E002C043
:101224000E947D0B0CC1E130A9F4353219F40E94FF
:101234007D0B04C102E050E010E03D3211F411E0F6
:10124400FEC03B3211F45BE2FAC0303211F450E2DA
:10125400F6C002C0E23039F440E003E0303311F468
:101264001068EDC004C0E33011F00C94210A30334F
:1012740010F03A3308F007C0AAE04A9F402DE32F4C
:10128400E0534E0FDCC0E32FE33649F40E94860B93
:10129400E889F989A481AA930E948C0BCFC0E33713
:1012A40041F40E94860B0E94940B0E94600A0E2F48
:1012B4000AC0E03761F40E94860B0E94940B0E94DE
:1012C4006A0A0E2F186012601F7720E035C0E436DA
:1012D40011F0E93611F4146002C0E53731F4E4E6A4
:1012E400F0E0EE83FF8305E00DC0E83511F41860EB
:1012F40004C0E83711F00C94200AEEE6F0E0EE8327
:10130400FF8304E012FF14C00E94860B0E949E0B10
:10131400AB85AA233AF4EA85FB850E94050DEA878A
:10132400FB875DE2503011F00F5F01C01B7F04C0EA
:101334000E94860B0E949E0B10FD11C0041778F4C6
:1013440017FF08C012FF04C01B7F352F015001C0D6
:1013540030E301C030E20E947D0B4150EFCF202FDB
:1013640011FF17C02030A1F013FF06C0EE81FF81EA
:101374003591EE83FF8305C0AE81BF813D91AE837D
:10138400BF830E947D0B403009F041502150EACFC9
:101394004BC030E3EE81FF810E946E0DE887F98730
:1013A400EE81FF813296EE83FF83E885F985AA8575
:1013B400BB85AE17BF0750F03F5FA885B985EA85A6
:1013C400FB85EA1BFB0BEA87FB87EFCF3A3328F058
:1013D40013FF02C0395F01C0395D14FD1AC03133F7
:1013E40020F4A885B985119709F409C0421710F0B3
:1013F40010FF01C013C030E217FF0BC030E31061CF
:1014040012FF07C01B7F5A930E948C0B403009F0D7
:1014140041500E947D0B403009F041502150A88575
:10142400B985129708F0B5CF10FF08C0403031F0ED
:101434004150E0E2EA930E948C0BF8CF00E0DDCE4D
:10144400AC85BD850E946A0D0E949B0D649608952B
:10145400FF92F82E26970E94960D0E94A60B3097B5
:1014640019F4EFEFFFEF25C0DE0116960E94010D7F
:101474008D010E94A60BEE83FF83E0E0E887E987F5
:10148400DE011A960E94010D0E946A0DFA93EA93F6
:101494001A930A93E7EBF8E0FA93EA93FE013A967B
:1014A400FA93EA93A0DE9F01AE81BF81E0E0EC9362
:1014B400F9010E949D0D2A96FF900895A991B99172
:1014C400EE27FF276D91662311F03196FBCF089527
:1014D400AA27BB27E991F9910590002011F01196F4
:1014E400FBCFFD010895E150F0E0EA50FD4F08956F
:1014F400E150F0E0E75EFC4F0895FA93EA930C9410
:10150400AD0BEE81A9E0EA9FF001E854FD4F089588
:10151400EE81F0E0EE54FD4F08950E94AF088F0174
:10152400EE81ACEAB2E0F0E0EE0FFF1FEA0FFB1F22
:101534000895ED93FC93EE81ACEAB2E0F0E0EE0F97
:10154400FF1FEA0FFB1F0895F0E0EE0FFF1F089541
:10155400EAE0F0E00E944E0DDB01ED93FC93089568
:10156400E091A802F091A9020895E4E2F3E0FA936D
:10157400EA9308950E941F0D0E94720D089588E059
:101584000E942A0A2C960895A091A602B091A7025F
:101594000895E0E0EA93E1E0EA930C942B08E091EB
:1015A400AA02F091AB020895E091D802A6EAB2E053
:1015B400CBCFAEE1B0E00E94770D08950E94830D79
:1015C400E0E0E093D502E093D6020895F0E030978E
:1015D4000895F0E0AE17BF070895D6DFA63AEFEFFF
:1015E400BE0708950E94770DACE3EA9FF001A09135
:1015F400D502B091D602EA17FB070895E8EBF2E0B2
:10160400FA93EA93E0E0F0E0FA93EA930E94BC00D4
:10161400E1ECF2E0FA93EA93E9E0F0E0FA93EA937A
:101624000C94BC00E091B502E093DA02E091B602BA
:10163400E093DB020895EAEDF2E0FA93EA93089569
:10164400E091D902F0E0E652FD4FE081EA930C9478
:10165400C401E091D902EF5FE093D9020895E091CB
:10166400D902F0E00895A091D902BB27F8CFEA0F80
:10167400FB1FE552FD4F0895EA930E94C401E5E47F
:10168400EA930C94C401EA930E94FF0B00E00895CE
:10169400A981BA81ED91A983BA83EA930C94FF0BD3
:1016A4000E94970DEB81FC81FA93EA930895FA93D3
:1016B400EA93E9E0EA930E94090C0E94240D0E9437
:1016C4009E0D0895E981FA81FA93EA930895E0E082
:1016D400FCE36CE176EC0895EA930E941E08E3E0D3
:1016E400F0E00BCFE0E3EA930E94FA0788EC90E085
:1016F4000197F1F708953A93ED85FE85FA93EA93FD
:10170400E989FA8909950895E889F9893497E88B74
:10171400F98B0895ED85FE85FA93EA93E989FA89B0
:1017240009950895A889B98914960E946A0DEE83D3
:10173400FF83FA93EA930895A889B98914960E94BD
:101744006A0DEA87FB870895DE011C960E94010D4D
:101754000E946A0D0895E991F991309639F080ED6F
:1017640097E00197F1F7A8953197C9F70895EE2707
:1017740096988E9A80EC93E00197F1F78E9885E223
:101784008A95F1F7869B08958BEC8A95F1F7869BF1
:10179400E1E08CE093E00197F1F708958E9A85E0FB
:1017A4008A95F1F78E988DE18A95F1F78894869958
:1017B4000894E79585ED8A95F1F70895E8948E9A53
:1017C40085E08A95F1F770FD8E9883E28A95F1F7AA
:1017D400869903C070FF03C0089570FF089588ECD4
:1017E4008A95F1F78E988DE08A95F1F768940895BB
:1017F40068E0D4DF6A95E9F7089568E07991EE2707
:10180400DDDF26F477956A95D9F7E3950895EE27F9
:101814008881882381F068E1A981BA8198E0FD91EB
:101824007F2F7E27779508F4E627E795F6959A9516
:10183400B9F78A9599F723960895552342F45038B9
:1018440011F4E0FF04C03196691F791F6BF050E872
:10185400572711F45F9373C05F3F31F0660F000C9C
:1018640057956795752F08955F9300200AF073C00C
:101874006CC050E8192E1522880F991F9527550F13
:10188400879550E8072E0522660F771F7527550F99
:1018940067950895689401C0E8945F93F2DF703807
:1018A40018F07F3F08F44BC056E1571BAAF451953A
:1018B40058300EF4593030F0EFEFFFEF6FEF7FE761
:1018C40077F91AC077275523B9F0EE0FFF1F661F6B
:1018D400771F5A95D1F710C07727583028F0EF2F8B
:1018E400F62F672F5850F9CF552331F07695679529
:1018F400F795E7955A95D1F700200AF488D05F91BF
:101904000895689401C0E894309760407040B1F045
:10191400002426F0772312F4009479D0172E7EE168
:10192400112032F07A95EE0FFF1F661F111CF9CFBC
:10193400EF2FF62F612D5F938ADF5F910895EE27D5
:10194400FF27662777275F910895EFEFFFEF6FE793
:101954007FEF5F910895EFEFFFEF6FE77FE75F9110
:1019640008955F9386DF703851F3903841F3012472
:101974000894791F23F41CF300203AF3ECCF0F9260
:101984001F932F933F934F93112722279927689FE3
:10199400A0018F9F302D410D591F6B9F300D411DAC
:1019A400591F8E9F27D0BF9F25D06A9F23D0BE9FEB
:1019B4001DD0AF9F1BD0AE9F110D291F391F491F8A
:1019C400591FE32FF42F652F522F4F913F912F91E1
:1019D4001F910F9066232AF0550FEE1FFF1F661FFD
:1019E40002C073954BF229DF5F910895100D211DFC
:1019F400391F02C0200D311D491F591F08950024AD
:101A0400AF0DB01D0895F195E195F0400895F0955E
:101A140060957095E195FF4F6F4F7F4F0895EE23CA
:101A24000E2EFD0121F0F595E7950A94E1F708954E
:101A3400F695E795F695E79508956F2F660F660B73
:101A4400762F0895EE23E1E009F0EE270895FA9F3A
:101A5400F02DEB9FF00DEA9FE02DF10D08952AD0B3
:101A6400F6DF0EF4D0DF08950024112490E1AA0FCC
:101A7400BB1F001C111C0E1A1F0A18F40E0E1F1E89
:101A840001C0A1609A9599F7FD01D001089512D083
:101A9400EBDF0EF4B8DF0895E894B7FF04C0A09517
:101AA400B09511966894F7FDAEDFDEDFFD010EF40C
:101AB400AADF0895E894F7FF02C0A5DF6894B7FF92
:101AC40006C0A095B095119600F8039400FA089505
:101AD400ED91FC91119708950590F491E02D0895EE
:101AE4007A936A93FA93EA930895E199FECFFF9368
:101AF400FFB7F894AEBBBFBBE09AEDB3FFBFFF9155
:101B04000895E19B02C0A895FCCF9FB7F894AEBBA3
:101B1400BFBBE09A8DB3E81719F0EDBBE29AE19AE6
:101B24009FBF08955A934A933A932A931A930A9318
:101B340008955D814C813B812A8119810881089532
:00000001FF
